{
  "_format": "hh-sol-artifact-1",
  "contractName": "BalanceScanner",
  "sourceName": "contracts/BalanceScanner.sol",
  "abi": [
    {
      "inputs": [],
      "stateMutability": "nonpayable",
      "type": "constructor"
    },
    {
      "inputs": [
        {
          "internalType": "address[]",
          "name": "addresses",
          "type": "address[]"
        }
      ],
      "name": "etherBalances",
      "outputs": [
        {
          "internalType": "uint256[]",
          "name": "balances",
          "type": "uint256[]"
        }
      ],
      "stateMutability": "view",
      "type": "function"
    },
    {
      "inputs": [
        {
          "internalType": "address[]",
          "name": "addresses",
          "type": "address[]"
        },
        {
          "internalType": "address",
          "name": "token",
          "type": "address"
        }
      ],
      "name": "tokenBalances",
      "outputs": [
        {
          "internalType": "uint256[]",
          "name": "balances",
          "type": "uint256[]"
        }
      ],
      "stateMutability": "nonpayable",
      "type": "function"
    },
    {
      "inputs": [
        {
          "internalType": "address",
          "name": "owner",
          "type": "address"
        },
        {
          "internalType": "address[]",
          "name": "contracts",
          "type": "address[]"
        }
      ],
      "name": "tokensBalance",
      "outputs": [
        {
          "internalType": "uint256[]",
          "name": "balances",
          "type": "uint256[]"
        }
      ],
      "stateMutability": "nonpayable",
      "type": "function"
    },
    {
      "inputs": [
        {
          "internalType": "address[]",
          "name": "addresses",
          "type": "address[]"
        },
        {
          "internalType": "address[]",
          "name": "contracts",
          "type": "address[]"
        }
      ],
      "name": "tokensBalances",
      "outputs": [
        {
          "internalType": "uint256[][]",
          "name": "balances",
          "type": "uint256[][]"
        }
      ],
      "stateMutability": "nonpayable",
      "type": "function"
    }
  ],
  "bytecode": "0x608060405234801561001057600080fd5b50610986806100206000396000f3fe608060405234801561001057600080fd5b506004361061004c5760003560e01c806306187b4f14610051578063aad330911461007a578063dbdbb51b1461009a578063e5da1b68146100ad575b600080fd5b61006461005f366004610662565b6100c0565b6040516100719190610878565b60405180910390f35b61008d61008836600461060f565b6101e7565b60405161007191906108f6565b61008d6100a83660046105cf565b610272565b61008d6100bb366004610564565b61030a565b6040805184815260208086028201019091526060908480156100f657816020015b60608152602001906001900390816100e15790505b50905060005b848110156101de573063e5da1b6887878481811061011657fe5b905060200201602081019061012b9190610542565b86866040518463ffffffff1660e01b815260040161014b9392919061080f565b600060405180830381600087803b15801561016557600080fd5b505af1158015610179573d6000803e3d6000fd5b505050506040513d6000823e601f3d9081017fffffffffffffffffffffffffffffffffffffffffffffffffffffffffffffffe01682016040526101bf91908101906106cb565b8282815181106101cb57fe5b60209081029190910101526001016100fc565b50949350505050565b604080518381526020808502820101909152606090838015610213578160200160208202803683370190505b50905060005b8381101561026a5761024b85858381811061023057fe5b90506020020160208101906102459190610542565b8461038d565b82828151811061025757fe5b6020908102919091010152600101610219565b509392505050565b60408051828152602080840282010190915260609082801561029e578160200160208202803683370190505b50905060005b82811015610303578383828181106102b857fe5b90506020020160208101906102cd9190610542565b73ffffffffffffffffffffffffffffffffffffffff16318282815181106102f057fe5b60209081029190910101526001016102a4565b5092915050565b604080518281526020808402820101909152606090828015610336578160200160208202803683370190505b50905060005b8281101561026a5761036e8585858481811061035457fe5b90506020020160208101906103699190610542565b61038d565b82828151811061037a57fe5b602090810291909101015260010161033c565b600080610399836104cb565b9050801561030357600060608473ffffffffffffffffffffffffffffffffffffffff166370a0823160e01b876040516024016103d591906107ee565b604080517fffffffffffffffffffffffffffffffffffffffffffffffffffffffffffffffe08184030181529181526020820180517bffffffffffffffffffffffffffffffffffffffffffffffffffffffff167fffffffff0000000000000000000000000000000000000000000000000000000090941693909317909252905161045e91906107b5565b6000604051808303816000865af19150503d806000811461049b576040519150601f19603f3d011682016040523d82523d6000602084013e6104a0565b606091505b509150915081156104c257808060200190518101906104bf9190610763565b93505b50505092915050565b3b90565b803573ffffffffffffffffffffffffffffffffffffffff811681146104f357600080fd5b92915050565b60008083601f84011261050a578182fd5b50813567ffffffffffffffff811115610521578182fd5b602083019150836020808302850101111561053b57600080fd5b9250929050565b600060208284031215610553578081fd5b61055d83836104cf565b9392505050565b600080600060408486031215610578578182fd5b833573ffffffffffffffffffffffffffffffffffffffff8116811461059b578283fd5b9250602084013567ffffffffffffffff8111156105b6578283fd5b6105c2868287016104f9565b9497909650939450505050565b600080602083850312156105e1578182fd5b823567ffffffffffffffff8111156105f7578283fd5b610603858286016104f9565b90969095509350505050565b600080600060408486031215610623578283fd5b833567ffffffffffffffff811115610639578384fd5b610645868287016104f9565b9094509250610659905085602086016104cf565b90509250925092565b60008060008060408587031215610677578081fd5b843567ffffffffffffffff8082111561068e578283fd5b61069a888389016104f9565b909650945060208701359150808211156106b2578283fd5b506106bf878288016104f9565b95989497509550505050565b600060208083850312156106dd578182fd5b825167ffffffffffffffff8111156106f3578283fd5b80840185601f820112610704578384fd5b8051915061071961071483610930565b610909565b8281528381019082850185850284018601891015610735578687fd5b8693505b84841015610757578051835260019390930192918501918501610739565b50979650505050505050565b600060208284031215610774578081fd5b5051919050565b6000815180845260208085019450808401835b838110156107aa5781518752958201959082019060010161078e565b509495945050505050565b60008251815b818110156107d557602081860181015185830152016107bb565b818111156107e35782828501525b509190910192915050565b73ffffffffffffffffffffffffffffffffffffffff91909116815260200190565b73ffffffffffffffffffffffffffffffffffffffff848116825260406020808401829052908301849052600091859160608501845b8781101561086b578285018461085a82886104cf565b168352945090820190600101610844565b5098975050505050505050565b6000602080830181845280855180835260408601915060408482028701019250838701855b828110156108e9577fffffffffffffffffffffffffffffffffffffffffffffffffffffffffffffffc08886030184526108d785835161077b565b9450928501929085019060010161089d565b5092979650505050505050565b60006020825261055d602083018461077b565b60405181810167ffffffffffffffff8111828210171561092857600080fd5b604052919050565b600067ffffffffffffffff821115610946578081fd5b506020908102019056fea26469706673582212201fb35f50280bed41d88548062962e97023032bfb56ebb217ec86c8a4e438774e64736f6c63430006040033",
  "linkReferences": {},
  "deployedLinkReferences": {}
}