{
  "_format": "hh-sol-artifact-1",
  "contractName": "NEXTEP",
  "sourceName": "contracts/NEXTEP.sol",
  "abi": [
    {
      "inputs": [
        {
          "internalType": "address",
          "name": "_feeTo",
          "type": "address"
        },
        {
          "internalType": "address",
          "name": "owner_",
          "type": "address"
        }
      ],
      "stateMutability": "nonpayable",
      "type": "constructor"
    },
    {
      "anonymous": false,
      "inputs": [
        {
          "indexed": true,
          "internalType": "address",
          "name": "owner",
          "type": "address"
        },
        {
          "indexed": true,
          "internalType": "address",
          "name": "spender",
          "type": "address"
        },
        {
          "indexed": false,
          "internalType": "uint256",
          "name": "value",
          "type": "uint256"
        }
      ],
      "name": "Approval",
      "type": "event"
    },
    {
      "anonymous": false,
      "inputs": [
        {
          "indexed": false,
          "internalType": "address",
          "name": "feeTo",
          "type": "address"
        },
        {
          "indexed": false,
          "internalType": "address",
          "name": "oldFeeTo",
          "type": "address"
        }
      ],
      "name": "FeeToChanged",
      "type": "event"
    },
    {
      "anonymous": false,
      "inputs": [
        {
          "indexed": false,
          "internalType": "uint256",
          "name": "sellFee",
          "type": "uint256"
        },
        {
          "indexed": false,
          "internalType": "uint256",
          "name": "buyFee",
          "type": "uint256"
        },
        {
          "indexed": false,
          "internalType": "uint256",
          "name": "oldSellFee",
          "type": "uint256"
        },
        {
          "indexed": false,
          "internalType": "uint256",
          "name": "oldBuyFee",
          "type": "uint256"
        }
      ],
      "name": "FeesChanged",
      "type": "event"
    },
    {
      "anonymous": false,
      "inputs": [
        {
          "indexed": true,
          "internalType": "address",
          "name": "previousOwner",
          "type": "address"
        },
        {
          "indexed": true,
          "internalType": "address",
          "name": "newOwner",
          "type": "address"
        }
      ],
      "name": "OwnershipTransferred",
      "type": "event"
    },
    {
      "anonymous": false,
      "inputs": [
        {
          "indexed": true,
          "internalType": "address",
          "name": "account",
          "type": "address"
        },
        {
          "indexed": false,
          "internalType": "uint256",
          "name": "fee",
          "type": "uint256"
        },
        {
          "indexed": false,
          "internalType": "uint256",
          "name": "finalValue",
          "type": "uint256"
        }
      ],
      "name": "PaidPurchaseFee",
      "type": "event"
    },
    {
      "anonymous": false,
      "inputs": [
        {
          "indexed": true,
          "internalType": "address",
          "name": "account",
          "type": "address"
        },
        {
          "indexed": false,
          "internalType": "uint256",
          "name": "fee",
          "type": "uint256"
        },
        {
          "indexed": false,
          "internalType": "uint256",
          "name": "finalValue",
          "type": "uint256"
        }
      ],
      "name": "PaidSellingFee",
      "type": "event"
    },
    {
      "anonymous": false,
      "inputs": [
        {
          "indexed": true,
          "internalType": "address",
          "name": "from",
          "type": "address"
        },
        {
          "indexed": true,
          "internalType": "address",
          "name": "to",
          "type": "address"
        },
        {
          "indexed": false,
          "internalType": "uint256",
          "name": "value",
          "type": "uint256"
        }
      ],
      "name": "Transfer",
      "type": "event"
    },
    {
      "inputs": [],
      "name": "DOMAIN_SEPARATOR",
      "outputs": [
        {
          "internalType": "bytes32",
          "name": "",
          "type": "bytes32"
        }
      ],
      "stateMutability": "view",
      "type": "function"
    },
    {
      "inputs": [],
      "name": "PERMIT_TYPEHASH",
      "outputs": [
        {
          "internalType": "bytes32",
          "name": "",
          "type": "bytes32"
        }
      ],
      "stateMutability": "view",
      "type": "function"
    },
    {
      "inputs": [
        {
          "internalType": "address",
          "name": "",
          "type": "address"
        },
        {
          "internalType": "address",
          "name": "",
          "type": "address"
        }
      ],
      "name": "allowance",
      "outputs": [
        {
          "internalType": "uint256",
          "name": "",
          "type": "uint256"
        }
      ],
      "stateMutability": "view",
      "type": "function"
    },
    {
      "inputs": [
        {
          "internalType": "address",
          "name": "spender",
          "type": "address"
        },
        {
          "internalType": "uint256",
          "name": "value",
          "type": "uint256"
        }
      ],
      "name": "approve",
      "outputs": [
        {
          "internalType": "bool",
          "name": "",
          "type": "bool"
        }
      ],
      "stateMutability": "nonpayable",
      "type": "function"
    },
    {
      "inputs": [
        {
          "internalType": "address",
          "name": "",
          "type": "address"
        }
      ],
      "name": "balanceOf",
      "outputs": [
        {
          "internalType": "uint256",
          "name": "",
          "type": "uint256"
        }
      ],
      "stateMutability": "view",
      "type": "function"
    },
    {
      "inputs": [],
      "name": "buyFee",
      "outputs": [
        {
          "internalType": "uint256",
          "name": "",
          "type": "uint256"
        }
      ],
      "stateMutability": "view",
      "type": "function"
    },
    {
      "inputs": [],
      "name": "decimals",
      "outputs": [
        {
          "internalType": "uint8",
          "name": "",
          "type": "uint8"
        }
      ],
      "stateMutability": "view",
      "type": "function"
    },
    {
      "inputs": [],
      "name": "feeTo",
      "outputs": [
        {
          "internalType": "address",
          "name": "",
          "type": "address"
        }
      ],
      "stateMutability": "view",
      "type": "function"
    },
    {
      "inputs": [],
      "name": "name",
      "outputs": [
        {
          "internalType": "string",
          "name": "",
          "type": "string"
        }
      ],
      "stateMutability": "view",
      "type": "function"
    },
    {
      "inputs": [
        {
          "internalType": "address",
          "name": "",
          "type": "address"
        }
      ],
      "name": "nonces",
      "outputs": [
        {
          "internalType": "uint256",
          "name": "",
          "type": "uint256"
        }
      ],
      "stateMutability": "view",
      "type": "function"
    },
    {
      "inputs": [],
      "name": "owner",
      "outputs": [
        {
          "internalType": "address",
          "name": "",
          "type": "address"
        }
      ],
      "stateMutability": "view",
      "type": "function"
    },
    {
      "inputs": [
        {
          "internalType": "address",
          "name": "owner_",
          "type": "address"
        },
        {
          "internalType": "address",
          "name": "spender",
          "type": "address"
        },
        {
          "internalType": "uint256",
          "name": "value",
          "type": "uint256"
        },
        {
          "internalType": "uint256",
          "name": "deadline",
          "type": "uint256"
        },
        {
          "internalType": "uint8",
          "name": "v",
          "type": "uint8"
        },
        {
          "internalType": "bytes32",
          "name": "r",
          "type": "bytes32"
        },
        {
          "internalType": "bytes32",
          "name": "s",
          "type": "bytes32"
        }
      ],
      "name": "permit",
      "outputs": [],
      "stateMutability": "nonpayable",
      "type": "function"
    },
    {
      "inputs": [],
      "name": "renounceOwnership",
      "outputs": [],
      "stateMutability": "nonpayable",
      "type": "function"
    },
    {
      "inputs": [],
      "name": "sellFee",
      "outputs": [
        {
          "internalType": "uint256",
          "name": "",
          "type": "uint256"
        }
      ],
      "stateMutability": "view",
      "type": "function"
    },
    {
      "inputs": [
        {
          "internalType": "address",
          "name": "_feeTo",
          "type": "address"
        }
      ],
      "name": "setFeeTo",
      "outputs": [],
      "stateMutability": "nonpayable",
      "type": "function"
    },
    {
      "inputs": [
        {
          "internalType": "uint256",
          "name": "_sellFee",
          "type": "uint256"
        },
        {
          "internalType": "uint256",
          "name": "_buyFee",
          "type": "uint256"
        }
      ],
      "name": "setFees",
      "outputs": [],
      "stateMutability": "nonpayable",
      "type": "function"
    },
    {
      "inputs": [
        {
          "internalType": "address",
          "name": "account",
          "type": "address"
        },
        {
          "internalType": "bool",
          "name": "isTrader",
          "type": "bool"
        }
      ],
      "name": "setTrader",
      "outputs": [],
      "stateMutability": "nonpayable",
      "type": "function"
    },
    {
      "inputs": [
        {
          "internalType": "address",
          "name": "account",
          "type": "address"
        },
        {
          "internalType": "bool",
          "name": "isWhitelisted",
          "type": "bool"
        }
      ],
      "name": "setWhitelist",
      "outputs": [],
      "stateMutability": "nonpayable",
      "type": "function"
    },
    {
      "inputs": [],
      "name": "symbol",
      "outputs": [
        {
          "internalType": "string",
          "name": "",
          "type": "string"
        }
      ],
      "stateMutability": "view",
      "type": "function"
    },
    {
      "inputs": [],
      "name": "totalSupply",
      "outputs": [
        {
          "internalType": "uint256",
          "name": "",
          "type": "uint256"
        }
      ],
      "stateMutability": "view",
      "type": "function"
    },
    {
      "inputs": [
        {
          "internalType": "address",
          "name": "",
          "type": "address"
        }
      ],
      "name": "tradelist",
      "outputs": [
        {
          "internalType": "bool",
          "name": "",
          "type": "bool"
        }
      ],
      "stateMutability": "view",
      "type": "function"
    },
    {
      "inputs": [
        {
          "internalType": "address",
          "name": "to",
          "type": "address"
        },
        {
          "internalType": "uint256",
          "name": "value",
          "type": "uint256"
        }
      ],
      "name": "transfer",
      "outputs": [
        {
          "internalType": "bool",
          "name": "",
          "type": "bool"
        }
      ],
      "stateMutability": "nonpayable",
      "type": "function"
    },
    {
      "inputs": [
        {
          "internalType": "address",
          "name": "from",
          "type": "address"
        },
        {
          "internalType": "address",
          "name": "to",
          "type": "address"
        },
        {
          "internalType": "uint256",
          "name": "value",
          "type": "uint256"
        }
      ],
      "name": "transferFrom",
      "outputs": [
        {
          "internalType": "bool",
          "name": "",
          "type": "bool"
        }
      ],
      "stateMutability": "nonpayable",
      "type": "function"
    },
    {
      "inputs": [
        {
          "internalType": "address",
          "name": "newOwner",
          "type": "address"
        }
      ],
      "name": "transferOwnership",
      "outputs": [],
      "stateMutability": "nonpayable",
      "type": "function"
    },
    {
      "inputs": [
        {
          "internalType": "address",
          "name": "",
          "type": "address"
        }
      ],
      "name": "whitelist",
      "outputs": [
        {
          "internalType": "bool",
          "name": "",
          "type": "bool"
        }
      ],
      "stateMutability": "view",
      "type": "function"
    }
  ],
  "bytecode": "0x60806040526000196000556c011aba4db89fc3d4d14c0000006001556101906003556101906004553480156200003457600080fd5b5060405162001b6038038062001b60833981016040819052620000579162000262565b600580546001600160a01b0319166001600160a01b0384161790556200007d81620001f3565b604080518082018252600681526504e45585445560d41b6020918201528151808301835260018152603160f81b9082015281517f8b73c3c69bb8fe3d512ecc4cf759cc79239f7b179b0ffacaa9a75d522b39400f918101919091527f8a6334be172b521f2ce65915625849838d1c315367befe43423326d8b06087cc918101919091527fc89efdaa54c0f20c7adf612882df0950f5a951637e0307cdcb4c672f298b8bc6606082015246608082018190523060a08301529060c00160408051601f198184030181529190528051602090910120600a55600154600860006200016d6002546001600160a01b031690565b6001600160a01b031681526020810191909152604001600020556200019a6002546001600160a01b031690565b6001600160a01b031660006001600160a01b03167fddf252ad1be2c89b69c2b068fc378daa952ba7f163c4a11628f55a4df523b3ef600154604051620001e291815260200190565b60405180910390a350505062000299565b600280546001600160a01b038381166001600160a01b0319831681179093556040519116919082907f8be0079c531659141344cd1fd0a4f28419497f9722a3daafe3b4186f6b6457e090600090a35050565b80516001600160a01b03811681146200025d57600080fd5b919050565b6000806040838503121562000275578182fd5b620002808362000245565b9150620002906020840162000245565b90509250929050565b6118b780620002a96000396000f3fe608060405234801561001057600080fd5b50600436106101a35760003560e01c806370a08231116100ee5780639b19251a11610097578063d505accf11610071578063d505accf146103de578063dd62ed3e146103f1578063f2fde38b1461041c578063f46901ed1461042f57600080fd5b80639b19251a14610385578063a9059cbb146103a8578063c1c024db146103bb57600080fd5b80637ef59d01116100c85780637ef59d01146103545780638da5cb5b1461036757806395d89b41146101f257600080fd5b806370a082311461030c578063715018a61461032c5780637ecebe001461033457600080fd5b80632b14ca56116101505780633644e5151161012a5780633644e515146102e757806347062402146102f057806353d6fd59146102f957600080fd5b80632b14ca561461029d57806330adf81f146102a6578063313ce567146102cd57600080fd5b80630b78f9c0116101815780630b78f9c01461025e57806318160ddd1461027357806323b872dd1461028a57600080fd5b8063017e7e58146101a857806306fdde03146101f2578063095ea7b31461023b575b600080fd5b6005546101c89073ffffffffffffffffffffffffffffffffffffffff1681565b60405173ffffffffffffffffffffffffffffffffffffffff90911681526020015b60405180910390f35b61022e6040518060400160405280600681526020017f4e4558544550000000000000000000000000000000000000000000000000000081525081565b6040516101e99190611703565b61024e6102493660046116b9565b610442565b60405190151581526020016101e9565b61027161026c3660046116e2565b610458565b005b61027c60015481565b6040519081526020016101e9565b61024e6102983660046115d3565b6105f2565b61027c60035481565b61027c7f6e71edae12b1b97f4d1f60370fef10105fa2faae0126114a169c64845d6126c981565b6102d5601281565b60405160ff90911681526020016101e9565b61027c600a5481565b61027c60045481565b61027161030736600461167f565b6106ab565b61027c61031a366004611587565b60086020526000908152604090205481565b61027161079e565b61027c610342366004611587565b600b6020526000908152604090205481565b61027161036236600461167f565b610847565b60025473ffffffffffffffffffffffffffffffffffffffff166101c8565b61024e610393366004611587565b60076020526000908152604090205460ff1681565b61024e6103b63660046116b9565b61093a565b61024e6103c9366004611587565b60066020526000908152604090205460ff1681565b6102716103ec36600461160e565b610947565b61027c6103ff3660046115a1565b600960209081526000928352604080842090915290825290205481565b61027161042a366004611587565b610c32565b61027161043d366004611587565b610d7e565b600061044f338484610f33565b50600192915050565b3361047860025473ffffffffffffffffffffffffffffffffffffffff1690565b73ffffffffffffffffffffffffffffffffffffffff16146104fa576040517f08c379a000000000000000000000000000000000000000000000000000000000815260206004820181905260248201527f4f776e61626c653a2063616c6c6572206973206e6f7420746865206f776e657260448201526064015b60405180910390fd5b6101f4821115801561050e57506101f48111155b61059a576040517f08c379a000000000000000000000000000000000000000000000000000000000815260206004820152602560248201527f4e45585445503a204d6178696d756d20627579206f722073656c6c206665652060448201527f697320352500000000000000000000000000000000000000000000000000000060648201526084016104f1565b60035460045460408051858152602081018590529081019290925260608201527f7027e29faa2460f22e800d92db38d4795b668c7104da6b87afaeaf502a269ca59060800160405180910390a1600391909155600455565b6000805473ffffffffffffffffffffffffffffffffffffffff85168252600960209081526040808420338552909152822054146106965773ffffffffffffffffffffffffffffffffffffffff841660009081526009602090815260408083203384529091529020546106649083610fa1565b73ffffffffffffffffffffffffffffffffffffffff851660009081526009602090815260408083203384529091529020555b6106a1848484610fb4565b5060019392505050565b336106cb60025473ffffffffffffffffffffffffffffffffffffffff1690565b73ffffffffffffffffffffffffffffffffffffffff1614610748576040517f08c379a000000000000000000000000000000000000000000000000000000000815260206004820181905260248201527f4f776e61626c653a2063616c6c6572206973206e6f7420746865206f776e657260448201526064016104f1565b73ffffffffffffffffffffffffffffffffffffffff91909116600090815260076020526040902080547fffffffffffffffffffffffffffffffffffffffffffffffffffffffffffffff0016911515919091179055565b336107be60025473ffffffffffffffffffffffffffffffffffffffff1690565b73ffffffffffffffffffffffffffffffffffffffff161461083b576040517f08c379a000000000000000000000000000000000000000000000000000000000815260206004820181905260248201527f4f776e61626c653a2063616c6c6572206973206e6f7420746865206f776e657260448201526064016104f1565b61084560006114c3565b565b3361086760025473ffffffffffffffffffffffffffffffffffffffff1690565b73ffffffffffffffffffffffffffffffffffffffff16146108e4576040517f08c379a000000000000000000000000000000000000000000000000000000000815260206004820181905260248201527f4f776e61626c653a2063616c6c6572206973206e6f7420746865206f776e657260448201526064016104f1565b73ffffffffffffffffffffffffffffffffffffffff91909116600090815260066020526040902080547fffffffffffffffffffffffffffffffffffffffffffffffffffffffffffffff0016911515919091179055565b600061044f338484610fb4565b428410156109b1576040517f08c379a000000000000000000000000000000000000000000000000000000000815260206004820152601060248201527f50616e63616b653a20455850495245440000000000000000000000000000000060448201526064016104f1565b600a5473ffffffffffffffffffffffffffffffffffffffff88166000908152600b6020526040812080549192917f6e71edae12b1b97f4d1f60370fef10105fa2faae0126114a169c64845d6126c9918b918b918b919087610a1183611819565b9091555060408051602081019690965273ffffffffffffffffffffffffffffffffffffffff94851690860152929091166060840152608083015260a082015260c0810187905260e00160405160208183030381529060405280519060200120604051602001610ab29291907f190100000000000000000000000000000000000000000000000000000000000081526002810192909252602282015260420190565b604080517fffffffffffffffffffffffffffffffffffffffffffffffffffffffffffffffe08184030181528282528051602091820120600080855291840180845281905260ff88169284019290925260608301869052608083018590529092509060019060a0016020604051602081039080840390855afa158015610b3b573d6000803e3d6000fd5b50506040517fffffffffffffffffffffffffffffffffffffffffffffffffffffffffffffffe0015191505073ffffffffffffffffffffffffffffffffffffffff811615801590610bb657508873ffffffffffffffffffffffffffffffffffffffff168173ffffffffffffffffffffffffffffffffffffffff16145b610c1c576040517f08c379a000000000000000000000000000000000000000000000000000000000815260206004820152601a60248201527f50616e63616b653a20494e56414c49445f5349474e415455524500000000000060448201526064016104f1565b610c27898989610f33565b505050505050505050565b33610c5260025473ffffffffffffffffffffffffffffffffffffffff1690565b73ffffffffffffffffffffffffffffffffffffffff1614610ccf576040517f08c379a000000000000000000000000000000000000000000000000000000000815260206004820181905260248201527f4f776e61626c653a2063616c6c6572206973206e6f7420746865206f776e657260448201526064016104f1565b73ffffffffffffffffffffffffffffffffffffffff8116610d72576040517f08c379a000000000000000000000000000000000000000000000000000000000815260206004820152602660248201527f4f776e61626c653a206e6577206f776e657220697320746865207a65726f206160448201527f646472657373000000000000000000000000000000000000000000000000000060648201526084016104f1565b610d7b816114c3565b50565b33610d9e60025473ffffffffffffffffffffffffffffffffffffffff1690565b73ffffffffffffffffffffffffffffffffffffffff1614610e1b576040517f08c379a000000000000000000000000000000000000000000000000000000000815260206004820181905260248201527f4f776e61626c653a2063616c6c6572206973206e6f7420746865206f776e657260448201526064016104f1565b73ffffffffffffffffffffffffffffffffffffffff8116610e98576040517f08c379a000000000000000000000000000000000000000000000000000000000815260206004820152601760248201527f4e45585445503a20696e76616c6964206164647265737300000000000000000060448201526064016104f1565b6005546040805173ffffffffffffffffffffffffffffffffffffffff808516825290921660208301527f82b35d45c357f923889a214ea247bfd97c31805b21391e139b94c750134b29bc910160405180910390a1600580547fffffffffffffffffffffffff00000000000000000000000000000000000000001673ffffffffffffffffffffffffffffffffffffffff92909216919091179055565b73ffffffffffffffffffffffffffffffffffffffff83811660008181526009602090815260408083209487168084529482529182902085905590518481527f8c5be1e5ebec7d5bd14f71427d1e84f3dd0314c0f7b2291e5b200ac8c7c3b925910160405180910390a3505050565b6000610fad8284611802565b9392505050565b73ffffffffffffffffffffffffffffffffffffffff8316600090815260076020526040902054819060ff16158015611012575073ffffffffffffffffffffffffffffffffffffffff831660009081526007602052604090205460ff16155b156113e85773ffffffffffffffffffffffffffffffffffffffff841660009081526006602052604090205460ff161580611072575073ffffffffffffffffffffffffffffffffffffffff831660009081526006602052604090205460ff16155b6110fe576040517f08c379a000000000000000000000000000000000000000000000000000000000815260206004820152603060248201527f4e45585445503a207472616e73666572696e67206265747765656e207472616460448201527f65727320697320666f7262696464656e0000000000000000000000000000000060648201526084016104f1565b73ffffffffffffffffffffffffffffffffffffffff841660009081526006602052604090205460ff161561120157600061114f6127106111496004548661153a90919063ffffffff16565b90611546565b905061115b8382610fa1565b60055473ffffffffffffffffffffffffffffffffffffffff166000908152600860205260409020549092506111909082611552565b60055473ffffffffffffffffffffffffffffffffffffffff908116600090815260086020908152604091829020939093558051848152928301859052908616917fc4614cbf32001269c30bb6eb16fb56c18107dd1d46b37845e9052c0e83e16e3e910160405180910390a2506113e8565b73ffffffffffffffffffffffffffffffffffffffff831660009081526006602052604090205460ff16156113e857600061124c6127106111496003548661153a90919063ffffffff16565b90506112588382611552565b73ffffffffffffffffffffffffffffffffffffffff8616600090815260086020526040902054101561130c576040517f08c379a000000000000000000000000000000000000000000000000000000000815260206004820152602d60248201527f4e45585445503a20696e73756666696369656e742062616c616e636520666f7260448201527f2073656c6c696e6720666565730000000000000000000000000000000000000060648201526084016104f1565b73ffffffffffffffffffffffffffffffffffffffff851660009081526008602052604090205461133c9082610fa1565b73ffffffffffffffffffffffffffffffffffffffff808716600090815260086020526040808220939093556005549091168152205461137b9082611552565b60055473ffffffffffffffffffffffffffffffffffffffff908116600090815260086020908152604091829020939093558051848152928301869052908616917fe6fdeb33fa037589c98bb2c2a96710235116a6410016e45976c16eca379e03af910160405180910390a2505b73ffffffffffffffffffffffffffffffffffffffff84166000908152600860205260409020546114189083610fa1565b73ffffffffffffffffffffffffffffffffffffffff80861660009081526008602052604080822093909355908516815220546114549082611552565b73ffffffffffffffffffffffffffffffffffffffff80851660008181526008602052604090819020939093559151908616907fddf252ad1be2c89b69c2b068fc378daa952ba7f163c4a11628f55a4df523b3ef906114b59086815260200190565b60405180910390a350505050565b6002805473ffffffffffffffffffffffffffffffffffffffff8381167fffffffffffffffffffffffff0000000000000000000000000000000000000000831681179093556040519116919082907f8be0079c531659141344cd1fd0a4f28419497f9722a3daafe3b4186f6b6457e090600090a35050565b6000610fad82846117c5565b6000610fad828461178c565b6000610fad8284611774565b803573ffffffffffffffffffffffffffffffffffffffff8116811461158257600080fd5b919050565b600060208284031215611598578081fd5b610fad8261155e565b600080604083850312156115b3578081fd5b6115bc8361155e565b91506115ca6020840161155e565b90509250929050565b6000806000606084860312156115e7578081fd5b6115f08461155e565b92506115fe6020850161155e565b9150604084013590509250925092565b600080600080600080600060e0888a031215611628578283fd5b6116318861155e565b965061163f6020890161155e565b95506040880135945060608801359350608088013560ff81168114611662578384fd5b9699959850939692959460a0840135945060c09093013592915050565b60008060408385031215611691578182fd5b61169a8361155e565b9150602083013580151581146116ae578182fd5b809150509250929050565b600080604083850312156116cb578182fd5b6116d48361155e565b946020939093013593505050565b600080604083850312156116f4578182fd5b50508035926020909101359150565b6000602080835283518082850152825b8181101561172f57858101830151858201604001528201611713565b818111156117405783604083870101525b50601f017fffffffffffffffffffffffffffffffffffffffffffffffffffffffffffffffe016929092016040019392505050565b6000821982111561178757611787611852565b500190565b6000826117c0577f4e487b710000000000000000000000000000000000000000000000000000000081526012600452602481fd5b500490565b6000817fffffffffffffffffffffffffffffffffffffffffffffffffffffffffffffffff04831182151516156117fd576117fd611852565b500290565b60008282101561181457611814611852565b500390565b60007fffffffffffffffffffffffffffffffffffffffffffffffffffffffffffffffff82141561184b5761184b611852565b5060010190565b7f4e487b7100000000000000000000000000000000000000000000000000000000600052601160045260246000fdfea26469706673582212207a5f985bd479f62b03eb4621b0d03c58375fdb5587e098240ebe884bb7da572e64736f6c63430008040033",
  "linkReferences": {},
  "deployedLinkReferences": {}
}